S021000072656C656173652F67726964616E69612D7265616C74696D652E7372656334
S214010000005800201104010071040100C10701001D
S21401001000000000000000000000000000000000DA
S2140100200000000000000000000000008104010044
S21401003000000000000000007104010065060100D8
S2140100406962010095620100C1620100ED62010072
S21401005019630100710401006506010065060100CF
S21401006071040100650601007104010065060100C6
S214010070D9630100710401006506010031640100C5
S214010080710401006506010071040100710401009C
S214010090650601007104010071040100710401008C
S2140100A0710401007963010089640100A5640100FF
S2140100B06506010071040100650601006506010080
S214010400FFFFFFFFFFFFFFFFFFFFFFFFFE7FFFFF77
S21401041072B611481049104A0F4B0F4C0E4D0E4E36
S2140104200D4FB846B946BA46BB46BC460B490C4AC0
S214010430521A013A05DD0020042308601944043AE3
S214010440FBDA08488546084880470848804762B670
S21401045009F038FCFEE70000000000000000002064
S2140104600058002000580020D55B0100F95B010010
S21401047000BECCE7FEE7C04600000000000000001A
S214010480C04671B604207146014218D0EFF30983C5
S2140104909C469A69023A1278E0480068036038215F
S2140104A043181B6820215B18F0C344464D46564648
S2140104B05F46F0C3EFF30984754630C30DE0C046CE
S2140104C0EFF308839A69023A1278EC46F0B4F0B476
S2140104D044464D4656465F46F0B41146442924DA52
S2140104E0D84D890029440E68634607CB00B5B0474E
S2140104F008BC9E4601B4C6490A78002A15D0FE2AD1
S2140105000DD0C6480068382143181B6801BC186026
S214010510C04610000022BE490A70BE490847BC49C1
S21401052000220A70C848854632E00420714601421E
S2140105301CD0BA480068382143181B6820215B1874
S214010540F0CBF0B4F0CBA046A946B246BB4630CBC2
S21401055084F30988AE46F0BCEFF3098104BC0A6057
S214010560BFF34F8FBFF36F8F61B67047EFF308810C
S214010570F0BCA046A946B246BB46F0BCBFF34F8FBF
S214010580BFF36F8F61B67047C046C046C046C046CF
S214010590C04671B6AC4981F30888A0480068836BF1
S2140105A0002B1FD1446B2268A84B482555432B448A
S2140105B0836301682025491B81F30988F0CBF0C1CC
S2140105C0F0CBF0C1F0CBF0B4F0CBA046A946B246D2
S2140105D0BB4630CBAE46F0BCBFF34F8FBFF36F8F39
S2140105E061B670478D480068C16B00291BD0002199
S2140105F0C163446B2268954B482555432B442025FF
S2140106005B19F0CBF0B4F0CBA046A946B246BB4688
S21401061030CB84F30988AE46F0BCBFF34F8FBFF3EF
S2140106206F8F61B67047446B2268884B48255543E7
S2140106302B44186820255B19F0CBF0B4F0CBA0460C
S214010640A946B246BB4630CB84F309882060AE4645
S214010650F0BCBFF34F8FBFF36F8F61B67047C046D4
S2140106603C2B0020C04671B60420714601421AD0C8
S214010670EFF309839C46694800680122C2639A69C0
S214010680023A12780360382143181B6820215B1850
S214010690F0C344464D4656465F46F0C3EFF3098421
S2140106A0754630C306E0FEE7F0B444464D4656466E
S2140106B05F46F0B45A4800780028FFD1EFF3058072
S2140106C05949014409780909EFF30580214600B527
S2140106D008F096FF80BCBE464D490A78002A06D02F
S2140106E0C046100000224A490A704A4908470420B9
S2140106F0714601421CD0494800680021C163382177
S21401070043181B6820215B18F0CBF0B4F0CBA04651
S214010710A946B246BB4630CB84F30988AE46F0BC48
S214010720EFF30981BFF34F8FBFF36F8F61B6704749
S214010730EFF30881F0BCA046A946B246BB46F0BC22
S214010740BFF34F8FBFF36F8F61B67047C046C04689
S214010750EFF308807047C046C046C046C046C04654
S21401076080F30888BFF36F8F7047C046C046C04607
S21401077080F30888BFF36F8F7047C046C046C046F7
S21401078080F314887047C046C046C046C046C0467F
S214010790EFF310807047C046C046C046C046C0460C
S2140107A0EFF310807047C046C046C046C046C046FC
S2140107B0EFF305807047C046C046C046C046C046F7
S2140107C000BEFEE7704704207146014203D0EFF3F6
S2140107D00980844600E0C04600B5EFF30581164A5D
S2140107E09646904704BC9646EAE7C046C046C046D1
S2140107F070B50C4C24689E466D46A546F047AD463E
S214010800F0BCBE467047C046C046C046C046C0465D
S214010810202B00201D9A010054480020AC2F0020F8
S21401082050480020382B0020F0E300E004ED00E003
S214010830D00B0020443300203D7A010091050100D1
S214010840442B0020F8AB020000580020442B002067
S214010850002243088B4274D303098B425FD3030AF9
S2140108608B4244D3030B8B4228D3030C8B420DD30C
S214010870FF22090212BA030C8B4202D3121209029A
S21401088065D0030B8B4219D300E0090AC30B8B42D8
S21401089001D3CB03C01A5241830B8B4201D38B0386
S2140108A0C01A5241430B8B4201D34B03C01A52412B
S2140108B0030B8B4201D30B03C01A5241C30A8B426E
S2140108C001D3CB02C01A5241830A8B4201D38B0259
S2140108D0C01A5241430A8B4201D34B02C01A5241FD
S2140108E0030A8B4201D30B02C01A5241CDD2C3096F
S2140108F08B4201D3CB01C01A524183098B4201D3EB
S2140109008B01C01A524143098B4201D34B01C01AD5
S214010910524103098B4201D30B01C01A5241C3084D
S2140109208B4201D3CB00C01A524183088B4201D3BC
S2140109308B00C01A524143088B4201D34B00C01AA8
S2140109405241411A00D20146524110467047FFE714
S21401095001B5002000F006F802BDC0460029F7D018
S21401096076E770477047C0468446100062468C465C
S2140109701900634600E0C0461FB501F00FFB0028D2
S21401098001D40021C8421FBD10B501F05FFA4042F4
S214010990013010BD10B501F001FB002801DB00207D
S2140109A010BD012010BDC04610B501F0F7FA0028B1
S2140109B001DD002010BD012010BDC04610B501F0BC
S2140109C087FA002801DC002010BD012010BDC046BA
S2140109D010B501F07DFA002801DA002010BD0120D3
S2140109E010BDC046844608006146FFE71FB500F00B
S2140109F055FB002801D40021C8421FBD10B500F0E8
S214010A00E1FA4042013010BD10B500F047FB002866
S214010A1001DB002010BD012010BDC04610B500F05E
S214010A203DFB002801DD002010BD012010BDC046A1
S214010A3010B500F0EDFA002801DC002010BD012001
S214010A4010BDC04610B500F0E3FA002801DA002018
S214010A5010BD012010BDC046F0B5C64643025B0A74
S214010A604E0245004F00DA00C40F9C46700A9046BD
S214010A7000B52D0E3F0EC90FB6098C424BD0EA1BAE
S214010A80002A36DD002F61D0FF2D00D1ADE0802396
S214010A90DB041E431B2A00DCD3E001204346181A60
S214010AA0430100D48CE080018709380001F0DAFAAE
S214010AB005388740854200DCB6E02D1AB348384039
S214010AC0430704D00F230340042B00D00430430116
S214010AD000D478E06A1CFE2D65D08001430A9C464E
S214010AE0D2B26346D0051843E407204380BCB8461B
S214010AF0F0BD002A35D07A1B002D00D0AFE043466A
S214010B00002B00D1A7E0531E012A00D12FE1FF2AB6
S214010B1069D01A00AAE0E91B002970DD002F37D042
S214010B20FF2D62D08023DB041E431B2900DCB0E0CE
S214010B3001204044430143D50135FF2D33D0012325
S214010B40934A0340400810401843B9E7002E00D1ED
S214010B5083E0511E012A00D1D8E0FF2A45D00A00C1
S214010B6098E7FE276A1C174200D086E0002D00D0C9
S214010B70B7E04346002B00D1F3E00022002EB0D0B0
S214010B80981B430100D4FAE043460C00F01A97E79D
S214010B90002E00D1C8E04A1E012900D1AEE0FF298F
S214010BA023D01100C1E70023FF229C4699E7FE21CE
S214010BB06A1C114277D0FF2AF5D01500464470080A
S214010BC0430700D07EE7C308FF2D0ED05B025B0A09
S214010BD09C46EAB285E7002E07D08022D203134254
S214010BE003D0104201D10C000300002BDBD0802083
S214010BF0C00318434002430A9C46FF2271E70029BE
S214010C00D5D07A1B002D60D14346002B24D0531E2D
S214010C10012A73D0FF2AE7D01A001B2A00DC85E0E0
S214010C2001203D00801985E720233A00451B380046
S214010C300135EA405D1BA840431E9841002510433C
S214010C403EE7202330009B1A31009840D140431ED6
S214010C509841084322E70C0003001500B4E7FF2F74
S214010C60C1D080234046DB04184380461B2A51DD51
S214010C7001200C003D00301A12E743469F1B7B0102
S214010C802BD4002F00D010E70023002400229C461E
S214010C9027E7202332003000CA40591A8840431EF5
S214010CA09841104345E7002D4AD14346002B63D0B7
S214010CB00022002E00D114E730004044430100D446
S214010CC07EE7324B013518407AE7FF2F8CD0802320
S214010CD04146DB04194388469FE743460C00F71A52
S214010CE0E3E64246002A00D075E7002E00D07AE7F8
S214010CF08023DB0300249C46FF22F2E630004044BA
S214010D000125430100D45BE7022518E74346012588
S214010D10981BC5E6202344464046D4409A1A904084
S214010D20431E98412043A4E70D004DE7202341468A
S214010D304046D1409A1A9040431E9841084370E7B6
S214010D404246002A00D14FE7002E00D14DE780220F
S214010D50D203134200D148E7104200D045E7030012
S214010D6043E7002E90D00C0084460022B9E64346A5
S214010D700C00F01A013593E684460022B1E60028FD
S214010D8000D01DE7002300249C46AAE6FFFFFFFBD8
S214010D90FFFFFF7DF0B54F464646D6464502C0B535
S214010DA047000C1C6D0A3F0EC60F002F00D170E0E5
S214010DB0FF2F00D175E0EB008025ED041D430023D5
S214010DC099469A467F3F6002430A984663001B0E87
S214010DD0E40F002B4ED0FF2B46D04246D000802297
S214010DE0D2040243904600227F3B3100FF1A4B4655
S214010DF06140C9B213430F2B00D9B5E06E489B0082
S214010E00C3589F46002398462600454692465346B9
S214010E10022B00D189E0032B00D19EE0012B18D0D4
S214010E203B007F33002B69DD6A0704D00F222A407E
S214010E30042A00D004352A0103D5604B1D403B002F
S214010E408033FE2B00DD70E0AD016D0AD8B202E002
S214010E500E0000200025C0052843F6073043E0BCFD
S214010E60BA46B146A846F0BD4346002B3FD1022202
S214010E70FF3F03E04346002B2DD1012231004B46B4
S214010E806140C9B213430F2B34D84D489B00C35859
S214010E909F46002D13D104239946033B00279A460B
S214010EA091E7002D05D108239946063BFF279A4670
S214010EB089E70C239946093BFF279A4683E72800D2
S214010EC001F0D0F87627431F9D4000237F429946C4
S214010ED09A463F1A77E7404601F0C4F84246431F58
S214010EE09A4076235B4290461B1A00227DE7FF2339
S214010EF003227AE70E00FF200025ACE70120C01A86
S214010F001B28A6DC9E372A00BD40C2406B1E9D41B1
S214010F1015436B0704D00F232B40042B00D0043558
S214010F206B0144D50120002595E7FF20002592E7B7
S214010F3080250026FF20ED038DE7002398468020BC
S214010F40C003054209D04346034206D14546054340
S214010F506D022600FF206D0A7DE78020C003054351
S214010F606D02FF206D0A76E742466B01500183420F
S214010F7019D21B220025013F01261C006D005B00D3
S214010F80002C01DB984201D81B1A3543013A002A8E
S214010F90F3D15A1E93411D433B007F330E00002BB5
S214010FA000DD41E7AAE71A2201251B1AE4E7AD0195
S214010FB000206D0A4FE7C0467CA20200FFFFFFF744
S214010FC0BCA2020070B5420045024E024C00C30F9F
S214010FD06D0A0120120E760A240EC90FFF2A06D0CA
S214010FE0FF2C03D0A24201D1B54206D070BD002D20
S214010FF0FCD1FF2CFAD1002EF8D18B4206D001206D
S214011000002AF3D12800431E9841EFE70020EDE7C0
S21401101070B5420045024E024C00C30F6D0A120E17
S214011020760A240EC80FFF2A1BD0FF2C0ED0002AEA
S2140110301BD1002C01D1002E1CD0002D0CD08342D8
S2140110401CD00221581E0840013870BD002E22D146
S214011050002AF4D1002DF2D10028F6D10120404219
S214011060F3E7002D17D1FF2CF0D0002CE7D1002E8E
S214011070E5D1E6E70020002DE7D0E2E7A24205DC55
S214011080EADBB54202D8E7D30020DEE74342584107
S21401109040000138D9E702204042D6E770B5420049
S2140110A045024E024C00C30F6D0A120E760A240E3C
S2140110B0C80FFF2A0BD0FF2C0DD0002A1FD1002C01
S2140110C016D1002E14D10020002D10D009E0002DDD
S2140110D00CD1FF2C13D1002E08D1002A08D0834250
S2140110E012D00221581E0840013800E0022070BDCF
S2140110F0002DF4D10028FAD101204042F7E7002C58
S214011100EDD1002EEBD1ECE7A24205DCF2DBB542D5
S21401111002D8EFD30020EAE74342584140000138A5
S214011120E5E7C046F0B54F464646D646440245007A
S214011130C0B5640A0F1C2D0EC60F002D00D18DE020
S214011140FF2D00D192E00023802099469A46E400C4
S214011150C00404437F3D7802430A98467B001B0E79
S214011160FF0F002B00D170E0FF2B00D186E0424636
S214011170D00080227F3BED180023D2040243904624
S2140111809C4631004B467940681C0F2B1CD8764A8A
S2140111909B00D3589F4639004446E2465346022BED
S2140111A00FD0032B00D1D7E0012B37D1002000242C
S2140111B0C0052043C9070843E0BCBA46B146A84665
S2140111C0F0BDFF200024F3E7260C2404220C44463D
S2140111D02404240C434627001B0C574374435A43EC
S2140111E05E4312193B0C9B189C4203D98022520283
S2140111F0944666443F041A043F0CD2199401671EB4
S214011200BC411B0C920E9B1914439B011C431B01F2
S21401121000D49BE0012362081C40144302007F3285
S214011220002A64DD630704D00F232340042B00D07B
S2140112300434230103D502004C4B80321C40FE2AA5
S214011240BFDCA401640AD0B2B2E74346002B3DD10D
S2140112504A4601331A4391469C4692E7002C29D10F
S21401126004239946033B00259A4674E7002C1BD1BC
S21401127008239946063BFF259A466CE74346FF3509
S214011280002B0BD102234A461A4391469C4678E727
S21401129053463100022B00D083E792E703234A46E8
S2140112A01A4391469C466CE70C239946093BFF2559
S2140112B09A4650E7200000F0D5FE7625431F9C4055
S2140112C000236D4299469A462D1A44E7404600F09F
S2140112D0C9FE4246431F9A4000232D1A90469C465B
S2140112E0763D4EE780240021FF20E40360E70123DA
S2140112F09B1A1B2B00DD59E722009E30DA40844002
S2140113001300621E94411C43630704D00F2323403D
S214011310042B00D0043463011AD50120002447E7CA
S2140113208020C003044209D04346034206D1444606
S214011330044364023900FF20640A39E78020C003B1
S214011340044364023100FF20640A31E7280065E7A0
S214011350A4010020640A2BE78020C0030443640232
S214011360FF20640A24E7C046FCA20200FFFFFFF745
S214011370F8B5CE46474643025B0A4E02DA0094466B
S214011380720A914645004A0080B52D0E1F00C40F13
S214011390120EC90FB609FF2A5BD0012041408C42CC
S2140113A039D0A81A00285ADD002A6AD0FF2D00D1AC
S2140113B0D9E08022D20416431B2800DCE9E0012094
S2140113C06346181A430100D4B4E080018709380047
S2140113D000F048FE05388740854200DCCCE02D1A37
S2140113E0B5483840430704D00F230340042B00D0F0
S2140113F00430430100D4A0E06A1CFE2D00D18DE02C
S2140114008001470AD2B2D0053843E4072043C0BC66
S214011410B946B046F8BDA81A8046002845DD002A20
S21401142070D0FF2D00D19EE08023DB041E4343468F
S2140114301B2B00DCD2E00120604443017AD5013544
S214011440FF2D6BD001239D4A0340400810401843EE
S214011450C8E7002E20D08C4223D02800FF38002871
S21401146039D0571B002D00D09DE06346002B00D1DC
S214011470DBE07B1E012F00D10DE1FF2F71D01F0095
S21401148098E0002E00D1A7E0421E012800D1E6E038
S214011490FF2868D010008FE701204140A14200D00C
S2140114A07FE7FF2040428046A8444046002838D0C7
S2140114B0511B002D00D1AEE0FF2A00D1DFE08023D2
S2140114C06046DB04184384461B2900DCD9E0012072
S2140114D015008019B1E7FE206A1C104271D1002D5B
S2140114E000D0A6E06346002B00D1D9E00022002EF2
S2140114F000D188E7981B430100D4E1E063460C0065
S214011500F01A6FE7002E00D1B7E00200013A012879
S21401151000D19CE0FF2826D0904688E7FF220027CE
S21401152071E7FE206A1C104264D0FF2AF6D015002F
S21401153066447008430700D056E7C308FF2D12D053
S2140115405B025F0AEAB25EE76246002A00D196E0D5
S214011550002E08D08022D203134204D048461042FF
S21401156001D10C004B46002BD8D08027FF031F4328
S2140115707F02FF227F0A46E720233A00451B3800F8
S2140115800135EA405D1BA840431E984100251043E3
S21401159028E720231B1A32009E40C2403000431E1B
S2140115A0984110430CE7FF2ADBD080236046DB041A
S2140115B0184384461B2F56DD01200C001500301AF7
S2140115C000E763469F1B7B013DD4002F00D0FEE65B
S2140115D000240022002716E70500AFE73200434645
S2140115E04146DA4020235B1A9E403000431E984154
S2140115F0104321E7002DA7D16346002B59D00022C6
S214011600002E00D1FFE630006044430192D52A4BFC
S214011610013518408EE76346002B47D04B1E012943
S21401162015D0FF292BD019004EE70C004B463D0084
S21401163084E76246002A8BD1002E92D180270024AF
S214011640FF22FF03DFE663460C00F71ABFE6300011
S21401165060440125430100D46CE70225F2E66346A7
S2140116600125981BAEE6202364466046FC40DF1B3E
S214011670B840431E984120439FE705005EE74B466E
S21401168071E7202365466046CD40591A8840431EBF
S214011690984128431CE763460C000125F01A91E6A1
S2140116A0002E95D00C004F460022ACE64B460D00AE
S2140116B044E74F460022A6E6FFFFFFFBFFFFFF7D44
S2140116C0002800D036E7002400279CE643024A02A1
S2140116D0400049005B0A520A090E000EFF2806D098
S2140116E00020FF2902D1531E9A4110007047FE3890
S2140116F0002BFBD1F4E7C04641024200C30F490A62
S2140117000020120E7E2A03DD9D2A02DD094A981862
S2140117107047802000040143952A07DC9620821A30
S214011720D1404842002BF3D10800F1E7963A9140A8
S214011730F7E7C046FFFFFF7FF8B5002813D0C317B1
S214011740C6185E40C40F300000F08CFC9E230500D6
S2140117501B1A962B0FDC082801DD083DAE407602E9
S214011760760AD8B202E0002400200026C0053043E5
S214011770E4072043F8BD992B0CDD05223100121A2F
S214011780D1400A00010030001B318840411E8841CB
S21401179002431600052D12DC31000D4F3940720749
S2140117A009D00F203040042805D004314A0102D563
S2140117B09F2339405B1B89014E0AD8B2D6E76A1FC0
S2140117C096403100024F39407207F4D0E9E7C0462F
S2140117D0FFFFFFFBF0B54F464646D6460D00040018
S2140117E0C0B51F0011002803620F400A10437A009B
S2140117F0520DE3003C039146640AFA0F4F0F6E0048
S21401180027439246B846760DED0FC900954200D1A2
S21401181099E04C46341BA446002C00DC7CE04A468A
S214011820002A00D1B8E0C54A964200D11CE18022C8
S2140118303C0012041443A0466246382A00DD61E1EA
S2140118401F2A00DDCCE164462022121B4446944048
S2140118500F00A14664469140E7404C464A1E91411E
S2140118603C43424621436446E240801A5C1AA34246
S2140118709B415F42C71B3B0200D4D0E07F027F0A38
S214011880002F00D1FFE0380000F0ECFB0100083922
S214011890202322005B1A8F40DA408C401743B14266
S2140118A000DAFFE0891B4B1C1F2B00DDA8E020227D
S2140118B03900D21A200094409140D840621E9441CB
S2140118C0DF40002601430C43630709D00F23234062
S2140118D0042B05D0231DA342A44164423F191C00DA
S2140118E03B0200D49EE0954B01369E4200D1B7E004
S2140118F0934AE40817407B0771057F0223433F0B99
S2140119004A0D12053A43ED072A4318001100E0BCC0
S214011910BA46B146A846F0BD002C4BD04C46A41B97
S214011920A446002E00D023E104001C4300D1AFE101
S2140119306246541E012A00D115E2804DAC4500D105
S214011940C8E1A4461BE14A46B21A9446002A00DCC6
S214011950ACE04A46002A43D0784A964200D1AFE12D
S21401196080223C0012041443A0466246382A67DCF3
S2140119701F2A00DC5FE14746203AD7406246202A0C
S21401198005D064464022121B4446944021434A1E19
S21401199091410C003C4357E03A000A4300D105E16F
S2140119A02200013A012C00D182E1644CA4455BD0AF
S2140119B0944641E7634C771C274200D0C4E00400FC
S2140119C01C43002E00D069E1002C00D1BFE1444643
S2140119D00C4300D0D0E14207DB081343C00829E0DE
S2140119E03A000A4300D170E162466446013A012C8E
S2140119F000D1E0E0514CA44500D161E19446B4E742
S214011A003A001F39CA401100202B03D04022D31AB6
S214011A109F403C43631E9C41002700260C436307FE
S214011A2000D053E7B446E4087B072343F808434A4B
S214011A3094451DD06246070352053F0B520D60E7E1
S214011A4044460C43621E9441E4189C429B415F420B
S214011A503F183B02E3D5394B01369E4200D0B5E034
S214011A603200002700234CE74207DB081343C00877
S214011A701A00024300D1E1E180273F0307433F03F9
S214011A802E4A3F0B3DE7200000F0ECFA010018312A
S214011A901F2900DCFCE60838844027000024B142F8
S214011AA000DBFFE6264A761A17400DE7002A2FD0FC
S214011AB04A46921B9446002E00D1ADE01F4A91453E
S214011AC000D10FE18022120410436246382A00DD5D
S214011AD00FE11F2A00DD80E1644620221E00121B52
S214011AE06746040093409440FE405A1E9341F840D6
S214011AF034431C43804464188C42BF417F424E46A7
S214011B004744A6E742460A4311004A1E9141ADE604
S214011B100C4C721C224200D0A1E002001A43002E97
S214011B2000D0FAE0002A00D145E13A000A4300D08D
S214011B3046E14207DB081343C0087BE7FF070000C6
S214011B40FFFF7FFFFE07000047465C1AC21BA34249
S214011B50BF417F42B94617004A46BF1A3A0200D52E
S214011B608DE023003B4300D08AE60020002561E794
S214011B70B44CA14500D1ADE0802424042043644642
S214011B80382C3DDC62461F2C00DDB7E020251E0008
S214011B902D1B0400AB40AC40D640D04042465D1EF3
S214011BA0AB413443121A904623432CE04207DB082C
S214011BB01343C0083BE75C189C429B4140445B4290
S214011BC0C71801263B0200D429E702269E4A63086D
S214011BD01740012214401C43FB071C437F0873E691
S214011BE04446203AD4406246202A05D06746402221
S214011BF0D21B4746974039434A1E9141214335E659
S214011C000343581E8341CC1AA142BF4143467F423B
S214011C1055464E46DF1B2EE602001A4300D1BDE0B4
S214011C2062466446013A012C00D1E5E0854CA445A4
S214011C3058D0944649E764462022121B44469440F5
S214011C400F00A14664469140E7404C464A1E91412A
S214011C503C4342460C436146CA408018F4E6794C40
S214011C60A24200D1FDE6591899429B4140445F4289
S214011C70C719FC07490816000C437F08CFE6CC1AA3
S214011C80A142BF4143467F42181A5546C71BF7E596
S214011C90C9087B0755460B43F808C8E6002C00D058
S214011CA081E043460B4315D1802000250003E3E67F
S214011CB05C1AA3429B41C71B5B420126FF1ADAE569
S214011CC04207DB081343C008D2E64207DB0813438A
S214011CD0C008ACE643464246C9085B0755460B4377
S214011CE0D008C5E6434642465B07C9080B43D00801
S214011CF0BEE603431C00631E9C41FCE60200203C3A
S214011D00E24014006246202A03D04025AD1AA840BE
S214011D100343581E8341234375E7002AE2D03A0065
S214011D200A43CDD04207DB0813438022C0081203C2
S214011D30104206D0FC08144203D12000CB087A07D3
S214011D4013435A0FDB005207DB08134390E6434662
S214011D500B4300D109E743464246C9085B0755468F
S214011D600B43D00866E6CC1AA14289413F1A494284
S214011D70554601267F1A7EE542465C1A871AA3421B
S214011D8092415242BF1A3A023DD5CC1AA14289412C
S214011D90434649421F1A55467F1A95E57B07C908EF
S214011DA00B43F80843E64446DB080C4330D14207B0
S214011DB01343C0085CE67B07C9080B43F80839E6FD
S214011DC05C189C429B4140445B42C7183B0200D4CE
S214011DD025E61D4B01261F4021E60400203AD4408B
S214011DE06246202A04D040226646921B9040034356
S214011DF05A1E93411C437EE65C188C42894140443E
S214011E0049424718DDE623003B4300D1ADE606E62E
S214011E10440723438024C0082403204208D04246B6
S214011E20D608264204D155463000CB0851070B434D
S214011E305A0FDB00DB085207134319E60023014A59
S214011E401F005EE5FF070000FFFF7FFFF0B54E466F
S214011E504546DE4657469046E0B517001A03120B74
S214011E600500844619480E034C0091465A00DB0FC4
S214011E709B46360B640DC90F520D844219D082421F
S214011E8010D0012094420ED14E450CD10120C445FC
S214011E9009D1594517D0002C05D130002843431EDF
S214011EA0984100E00120F0BCBB46B246A946A046D8
S214011EB0F0BD330001202B43F5D1A242F3D14B46AE
S214011EC03B43F0D1E2E70020EDE7C046FF07000004
S214011ED0F0B54746CE460400180016001B031B0B40
S214011EE02D4D4A00994680B543000F03A446B046DF
S214011EF03F0B520DC90F5B0DC00FAA4221D0AB425A
S214011F0013D0002A22D13C43002B02D14D462E434A
S214011F1022D0002C10D0814222D002200139084064
S214011F200138C0BCB946B046F0BD4D462E4329D156
S214011F30002AF0D13C43EED10028F2D101204042E4
S214011F40EFE73D0025431DD19342EED0002BE2D1B1
S214011F504C462643DFD1E0E70020002CE1D0DCE749
S214011F609A420ADCE8DB4F45D7D80ED000204F4511
S214011F70D7D20029E2D00800D3E7434258414000B7
S214011F800138CEE702204042CBE7C445C5D8002041
S214011F90C445C6D2EDE7C046FF070000F0B5474688
S214011FA0CE460400180016001B031B0B2C4D4A00DE
S214011FB0994680B543000F03A446B0463F0B520D29
S214011FC0C90F5B0DC00FAA420DD0AB4210D0002A3C
S214011FD027D13C43002B11D14D462E430ED1002074
S214011FE0002C15D00EE03D00254310D1934218D1A8
S214011FF04D462E430BD1002A02D13C43002C0BD078
S214012000814214D0022001390840013800E0022044
S214012010C0BCB946B046F0BD0028F9D10120404207
S214012020F6E7002BECD14C462643E9D1EAE79A4283
S21401203004DD4342584140000138E9E79A42EBDBB0
S2140120404F45DFD806D000204F45E1D20029E5D024
S2140120500800DDE7C445D5D80020C445D8D2F5E749
S214012060FF0700001C2101231B04984201D3000C2A
S21401207010391B0A984201D3000A08391B099842F5
S21401208001D30009043902A2105C40187047C0460B
S214012090040302020101010100000000000000002B
S2140120A003460B437FD4002243088B4274D30309B3
S2140120B08B425FD3030A8B4244D3030B8B4228D354
S2140120C0030C8B420DD3FF22090212BA030C8B427A
S2140120D002D31212090265D0030B8B4219D300E01A
S2140120E0090AC30B8B4201D3CB03C01A5241830B9F
S2140120F08B4201D38B03C01A5241430B8B4201D34F
S2140121004B03C01A5241030B8B4201D30B03C01A77
S2140121105241C30A8B4201D3CB02C01A5241830AF1
S2140121208B4201D38B02C01A5241430A8B4201D320
S2140121304B02C01A5241030A8B4201D30B02C01A4A
S2140121405241CDD2C3098B4201D3CB01C01A5241B1
S21401215083098B4201D38B01C01A524143098B423A
S21401216001D34B01C01A524103098B4201D30B0123
S214012170C01A5241C3088B4201D3CB00C01A524148
S21401218083088B4201D38B00C01A524143088B420D
S21401219001D34B00C01A5241411A00D201465241A6
S2140121A0104670475DE0CA0F00D04942031000D3C5
S2140121B04042534000229C4603098B422DD3030A1A
S2140121C08B4212D3FC22890112BA030A8B420CD32A
S2140121D0890192118B4208D3890192118B4204D353
S2140121E089013AD0921100E08909C3098B4201D3D3
S2140121F0CB01C01A524183098B4201D38B01C01A0D
S214012200524143098B4201D34B01C01A5241030983
S2140122108B4201D30B01C01A5241C3088B4201D332
S214012220CB00C01A524183088B4201D38B00C01ADF
S2140122305241D9D243088B4201D34B00C01A5241B6
S214012240411A00D20146634652415B10104601D343
S2140122504042002B00D54942704763465B1000D3CD
S214012260404201B50020FEF77DFB02BD0029F8D0F3
S21401227016E77047002B11D1002A0FD1002900D193
S214012280002802D00021C943080007B4024802A171
S2140122904018029003BDC046CDE6FFFF03B4684672
S2140122A001B5029800F06AF8019B9E4602B00CBC8C
S2140122B07047C046F0B5CE46474680B507009946FA
S2140122C03B0C9C4613041B0C1D000E0061460004CB
S2140122D0140C000C45434B4360436143C0182C0C5F
S2140122E020188C46834203D980235B029846C44457
S2140122F0494679437243030C63442D042D0CC918D7
S214012300000440198918C0BCB946B046F0BDC046A5
S2140123109E2110B5C905041CFEF794FB002803D1C5
S214012320201CFFF7E9F910BD9E21201CC905FFF707
S2140123301FF8FFF7E1F980231B069C466044F2E78D
S21401234070B500220C4B04000D00FEF741FB00287F
S21401235004D12000290001F013FA70BD064B0022BB
S2140123602000290000F07AFE01F00AFA80231B06FD
S2140123709C466044F1E7C0460000E041F0B5574690
S2140123804E464546DE46E0B504000D0092469946A7
S21401239083B08B4230D82DD04946504601F04CFBD5
S2140123A029000600200001F047FB331A9846203B1F
S2140123B09B4633D45A465346934042461F005346E3
S2140123C093401E00AF423AD8AF4200D178E05B4658
S2140123D0A41BBD41002B00DA75E000220023009209
S2140123E0019301235A4693400193012342469340A9
S2140123F0009328E08242CFD9002200230092019365
S2140124000C9B002B01D01C605D600098019903B005
S214012410F0BCBB46B246A946A046F0BD42462023C4
S2140124209B1A5246DA40414613004A468A40170034
S21401243042461F43534693401E00AF42C4D9002272
S2140124400023009201934346002BD9D0FB07720864
S2140124501A4346467B080EE0AB4201D1A2420CD895
S214012460A41A9D41012024196D410021013E241822
S2140124704D41002E06D0AB42EED9013E24196D41E6
S214012480002EF8D1009801995B4600196941002B8E
S21401249024DB2B005A464446D3402A00E2401C0067
S2140124A05B461500002B2ADB26009E4033002600E3
S2140124B04746BE403200801A9941009001919FE73D
S2140124C0A342BCD883E74246202300219B1A002260
S2140124D0009101920122DA40019286E742462023CA
S2140124E09B1A2A0046469A402300F340444613436B
S2140124F02A00E2401C005B461500002BD4DA424657
S2140125002F002023260097409B1ADE403B003343D2
S214012510CDE7C04670B5051E0ED0FFF7A3FD9E237E
S21401252004001B1A962B0CDC082801DD083CA5408C
S2140125306D026D0AD8B201E000200025C0052843CF
S21401254070BD992B09DD020029001B3291404A1EFD
S21401255091410522121AD5400D43052C12DC2900A3
S2140125600C4E31406A0709D00F202840042805D0B8
S21401257004314A0102D59F2331401B1B89014D0AB4
S214012580D8B2DBE7621F95402900024E31406A0748
S214012590F4D0E9E7FFFFFFFBF0B557464E46454648
S2140125A0DE46E0B5814605000C03480092461F0052
S2140125B085B0240B400DCE0F002800D156E1D44B38
S2140125C0984200D172E16B0FE4001C4380231B0488
S2140125D023439846CF4BED009B4600239946834400
S2140125E000933C037B005046240B5B0DFF0F002B32
S2140125F000D11FE1C64A934200D162E1C549420FAC
S2140126008C46E40059461443802263441204CB1AD4
S21401261014439B46C200002033007B409A464B463B
S2140126200F2B27D8BC499B00CB589F46B246009B30
S214012630022B16D0032B00D18EE2012B00D0D9E05D
S21401264000230024002552461B052343D2071343CB
S2140126502800190005B0F0BCBB46B246A946A04604
S214012660F0BD00240025AA4BEDE7BA46A0461500AA
S2140126700090DCE7444500D2C7E100D1C2E1012366
S2140126805B429C462E0040460025E3442302140E7E
S2140126901C431B0C994623041F0C12024946009248
S2140126A00197FEF75BF902007A430B04310C804672
S2140126B019438A4207D901235B429C460919E04423
S2140126C08C4200D807E2881A4946FEF747F9090402
S2140126D08C4631046646019A090C42430300314395
S2140126E08A4204D90919013B8C4200D8EDE1881AC7
S2140126F0424612041A4390464146009B0E041B0CA8
S2140127001F000293009B360C1B04190C0B0073432D
S214012710120C7E43039151437A431F0CBC46761834
S2140127206644B14203D9802149028C466244310C89
S2140127308A1831041E04360C8E19904202D312D127
S214012740B54210D24346591E009B9C4665441F0065
S2140127509D429B415B421B19C018844200D2A0E1F6
S21401276000D19BE18846AE1BB542AD41801A6D4251
S214012770401B844200D1D5E14946FEF7EFF8019AA5
S2140127800B044243310C050019438A4200D96CE11F
S214012790881A4946FEF7E2F8019A360442430904CC
S2140127A0360C03000E43B24200D953E10398B61A21
S2140127B002002D041D43029F2B041B0C5A437B432E
S2140127C09C46290C4843130C84446344794398423D
S2140127D003D98020400284466144180C12041B046D
S2140127E0120C41189B188E4200D2FFE000D1FAE08D
S2140127F001231D43494A5A44002A00DCAAE06B071C
S21401280000D03DE1ED084346DB0106D54246444B88
S2140128101A4090468022D2005A44424B9A4200DD2A
S2140128201FE743465B071D43434652055C02240BE4
S214012830530D08E75246224300D17BE0002C00D11D
S214012840FAE02000FFF70EFC02000B3A1D23010000
S2140128509B1A52460839DA408C40144352468A4045
S214012860314B58449B4683440020D5E64B462343D0
S214012870984644D0002C00D1CEE02000FFF7F2FBB2
S214012880010002000B391D235B1A49461000D9408E
S214012890083884400B004D4623439846854023481C
S2140128A0831A9B460023994600939AE64B46234398
S2140128B098461DD108239946063B0025834600937A
S2140128C08FE65246224309D1022349461943184B43
S2140128D089469C4600240220E3449DE603234A469B
S2140128E01A43134B91469C4652460320E34493E613
S2140128F00C239946093BA0468346009371E60423C0
S214012900994600239B4601330025009369E6C0469D
S214012910FF07000001FCFFFF3CA30200FF030000CD
S214012920FFFFFFFEFE070000F30300000DFCFFFFA4
S21401293001F8FFFF49460123194389460024012077
S2140129406AE6002380249A4600258A4B24037AE609
S21401295001256D4201239B1A382B00DD70E61F2BE3
S21401296000DCBFE01F2149428A1A4146D1400A00D5
S214012970202B04D04146804B5B4499400D436B1E8F
S2140129809D4107232A431D0000241540134200D110
S214012990D4E00F2100231140042900D1CBE0111D02
S2140129A09142924152429B180A00190200D4C2E099
S2140129B001230024002546E6802341461B031942D5
S2140129C008D01C4206D11C432403BA461500694BA5
S2140129D0240B38E68024434624031C432403B246D2
S2140129E0644B240B2FE6002B00D103E7A619681EC3
S2140129F0A64200D28DE08E4200D2A3E000D1B3E021
S214012A000500F5E6AA4200D939E64346DE0758082E
S214012A106B081E43ED0739E64846FFF723FB010026
S214012A200200153120321C2900DC2CE74B46083801
S214012A3083400025984632E7FFF714FB03001A008F
S214012A40153220301C2A00DC00E75446083B0022E1
S214012A509C4005E73619013BB44200D9A6E6B242CE
S214012A6000D8A3E6831E3619A0E60919013D8C425B
S214012A7000D98DE68A4200D88AE6851E091987E6BE
S214012A800F232B40042B00D1BCE605235B42AB424F
S214012A909B4104355B42ED089844B4E6AF4200D949
S214012AA060E6824204D800D05CE6AE4200D859E621
S214012AB002235B429C46009BE0449C4665449D4243
S214012AC09B415B421B19C0184DE68A4200D80EE6B0
S214012AD0831E09190BE68A4200D8F4E5831E984640
S214012AE00919F0E52549280059448D4042468A4097
S214012AF0691E8D414146D840D94002432A430B0006
S214012B00510700D151E70F211140042900D046E7B3
S214012B104BE705008E4200D06AE6009A934200D049
S214012B2066E667E6164A5A44002A00DC10E70123E7
S214012B300025984467E65D075B021C0BD20800235C
S214012B40154380E50098023D42008242BF417F4224
S214012B503C1936190092DDE78024434624031C43C2
S214012B602403044B240B6EE5009A9A42EAD305002F
S214012B70D3E7C046FF0700003E0400001E04000025
S214012B80FF030000F0B557464E464546DE46E0B523
S214012B9098460C034B000600924687B0240B5B0D4B
S214012BA0CF0F002B00D15CE1D94A934200D175E1E9
S214012BB0420FE4001443802212041443D54AC50090
S214012BC0944663440093002399469B4643464246F7
S214012BD01E03D20F5B0050469046360B5B0D00D1AC
S214012BE020E1CB4A934200D162E1CA49420F8C46AA
S214012BF000996344F6008C46164380229C441204D6
S214012C0063461643C20000200093009943460131F3
S214012C108C4649467B4001930F2926D8BE4B890036
S214012C2059588F46434601933400150083465B4648
S214012C30022B16D0032B00D103E2012B00D0CDE0EE
S214012C40002200240025019B12052243DB071A43BC
S214012C502800110007B0F0BCBB46B246A946A04604
S214012C60F0BD00240025AA4AEDE7280C2D042D0C02
S214012C702B00110C1204120C5343984613002F001C
S214012C80434399464F434F44BB4647460B003F0CD0
S214012C90BA464343DA440293D14504D980277F02DA
S214012CA0B9464B44029353461B0C9B4653461F049E
S214012CB043461B041B0C98463B0043440493330CC9
S214012CC03604360C984633004343994643464343FD
S214012CD02F009A46434677435D43380C4D444519C9
S214012CE0A94503D980235B029946CA443F04280CB0
S214012CF03F0C2D04ED19270C2404240C030020009E
S214012D0050437A4391463A0053440593030C9A463E
S214012D104A43614349445144AB44894503D980231E
S214012D205B0299464A4400040B0C000C090409187E
S214012D3020009946434670435C437E435F43030C41
S214012D409846A41944444A440397A64204D98023CA
S214012D505B029846474403972304029E9A46059BC6
S214012D605E449846AE42AD4176188E4289410004D3
S214012D70000C504440446D424719B84693464942B8
S214012D808946C344D94498428041A845AD419345FC
S214012D909241894589416D4240422843240C524262
S214012DA049420A43039B00198018C7184B46DC0D9D
S214012DB0049B75021D436A1E95414B46F60D7F0224
S214012DC035435A023C431543FB0100D41CE1012163
S214012DD06A080D401543E207154364084F496144EC
S214012DE0002900DCB0E06B0709D00F222A40042A34
S214012DF005D02A1DAA42AD416D4264191500E301B2
S214012E0004D58021464AC90014406144454A91428E
S214012E1000DD26E76207ED08640249051543240B29
S214012E204A0D10E75246324300D17FE0002E00D112
S214012E30DCE03000FFF716F902000B3A1D23010013
S214012E409B1A52460839DA408E40164352468A404B
S214012E50009B3549181A03008C46634400200093F2
S214012E60D3E6250005434AD0002C00D1B0E020006F
S214012E70FFF7F8F8010002000B391D2310005B1A5A
S214012E803100350008388440D94085400C43264837
S214012E90831A0093002399469B4697E6050025432F
S214012EA026D1082200930223002491469B468DE6F4
S214012EB05246009B324310D1154900268C46634486
S214012EC04946009302231943894602209DE65B4644
S214012ED00197022B00D0ADE6C3E60D4A03209446C7
S214012EE063444A46009303231A43914652468CE6AE
S214012EF00C2200930323050091469B4666E60423B5
S214012F00994600230093013300249B465EE6C046A3
S214012F10FF07000001FCFFFF7CA30200FF03000087
S214012F20FFFFFFFEFE0700000DFCFFFF49460123E1
S214012F30194389460026012067E6002380240025E0
S214012F40434A019324037EE60120401A382800DD17
S214012F5076E61F285BDD1F2223005242511ACB4022
S214012F601900202803D03B4A6244944025436A1E38
S214012F7095412A000A4307210D00002415401142FD
S214012F805BD00F2100241140042953D0111D91421A
S214012F9092415242A4180A0023024BD50122002472
S214012FA0002550E680231B031C4209D01E4207D190
S214012FB033431C0343461500240B254A019342E67E
S214012FC08022120314432403214A240B01973AE674
S214012FD0FFF748F801000200153120321C2900DCF9
S214012FE04BE7340008380025844050E7FFF73AF8ED
S214012FF003001A00153220301C2A00DC1EE7564654
S214013000083B00229E4023E7009B9C46E6E61249C9
S214013010220061442E008D408A40C640691E8D41C3
S21401302032432A43C4405307B6D00F211140042926
S214013030ACD1B1E765076402240BD2081543002220
S21401304001E68022120314432403014A240BFAE505
S214013050FF0700003E0400001E040000F8B55746B6
S2140130604E464546DE46E0B51E0017004A000B03F5
S214013070520D5B0A9046420F1A43CD0FCD4C3103D9
S214013080C300944670007A0F490AFF009A46B94673
S214013090400DF60F1143A04200D1B1E00122564087
S2140130A0B346B54200D188E04246121A002A00DC37
S2140130B0AEE0002800D1C1E0BE48804500D151E114
S2140130C0802000040143382A00DD7BE11F2A00DD51
S2140130D0EEE120203E00801A0C00D640D140874009
S2140130E062468440521A781E8741944634432743E9
S2140130F0DC1BA3429B4162465B42D31A99464B4670
S2140131001B0200D418E14B465802430A99464B4627
S214013110002B00D137E14846FEF7A4FF010008392D
S2140131202023220048465B1ADA4088408C404346FA
S2140131301043884500DD36E1C91A4B1C1F2B00DD04
S214013140EAE020222600D21A01009440DE40D84050
S21401315000239140621E94418146984631430C43B8
S214013160630709D00F232340042B05D0231DA34258
S214013170A4416442A1441C004B461B0200D4DEE07D
S21401318041468C4B0131994200D1E7E04B468A48D3
S214013190E4080340180049055B07400223434A0D33
S2140131A0040B1205ED0722432A4318001100F0BC58
S2140131B0BB46B246A946A046F8BD4246121A002AA8
S2140131C052DD002800D19CE0A04500D1CAE0802055
S2140131D000040143382A00DD49E11F2A00DC97E19B
S2140131E010000E002038C640202A04D04020821A43
S2140131F091400F43B9464C46621E944134433AE12E
S2140132000A003A4328D0B346B5422BD06B4A424413
S214013210002A5DD042464446821A002C00D0F5E0D2
S21401322065461D4300D19CE1551E012A00D1FBE1F4
S214013230604CA24200D1BDE12A00F0E0080038430C
S21401324000D1C3E0501E012A00D1A8E1594CA24288
S21401325000D187E0020036E701225640B346B54268
S21401326000D021E7554A4244002A00D1B5E0424643
S2140132704446821A002C00D138E14E4EB04200D1AD
S214013280DEE18026644636043443A446382A00DD4F
S21401329096E11F2A00DD24E22026B41AA2466446DF
S2140132A05646B440A1461C004E46D4402643340040
S2140132B05646B3405E1EB3411C436346D340C9180D
S2140132C0E419BC42BF417F42B94680468944D8E0F2
S2140132D040463B4C0130204200D0B4E04046002836
S2140132E000D044E16046184300D190E1080038431D
S2140132F000D0AAE16146DB0849070B436146CC08CA
S21401330027E00800384361D0501E012A00D139E178
S214013310A24227D002005DE702001F39CA40110011
S214013320202B03D04022D31A98400443631E9C41AD
S2140133300023994698460C43630700D012E74B4694
S2140133404A46E4085B072343D408424619498A42A1
S2140133500ED024035205240B520D22E70A00002446
S21401336000231EE7DB086246520713436246D40871
S2140133701A00224300D1FCE18022120314432403E5
S2140133800C4A240B0DE72000FEF76CFE01001831F5
S2140133901F2900DCC4E60838844043462000002488
S2140133A0884500DCC8E6044A5B1A10409846814608
S2140133B0D6E6C046FF070000FFFF7FFF01F8FFFFCC
S2140133C0FE0700000F437A1E974191E66146DB082F
S2140133D049070B436146CC08B8E74046D34C013059
S2140133E0204200D0A2E04046002800D001E160461D
S2140133F0184300D15EE10800384300D05FE1614622
S214013400DB0849070B436146CC08A2E7C84DA84232
S21401341000D1CFE0802564462D042C43A446382AEB
S21401342056DC1F2A00DDD1E020251E00AD1A6446B9
S214013430AB40AC40D6405D1EAB41344323436446AB
S214013440D440091B49E06046DC1B461AA342804172
S2140134504042814630004E46801B8146000276D4AB
S2140134604B46234300D052E60024002571E739433A
S2140134700C00621E9441E4189C429B415B426344EB
S21401348099464B461B0200D456E701239C46A84B9F
S214013490E044984538D04B46A64801220340180020
S2140134A0630814401C43C3071C434308994657E668
S2140134B010000E002038C640202A04D04020821A70
S2140134C091400F43B9464F467A1E974137430FE660
S2140134D062461A4313005A1E9341FC1AA742BF4183
S2140134E07F42CB1B99465D46804608E666461E43EC
S2140134F000D1BEE0561E012A00D109E18C4CA24241
S21401350000D119E13200C1E642460024002348E614
S21401351020200C00801A3E0087408440D640781E4A
S2140135208741D14034433C438C44A4E7804A9042CF
S21401353000D1E9E0DF199F429B4161445B42C91813
S214013540CC077F084B08994680463C43F4E6FC1AB4
S214013550A742BF4163467F42C91ACB1B99465D46C7
S214013560D5E5FF084B075D463B43CC08EEE66246D1
S2140135701A4300D082E00B003B431BD18024002578
S2140135802403F9E6DC199C429B41614489465B426F
S21401359099444B461B0244D401239846CCE6DC1BD7
S2140135A06246A3429B41511A5B42CB1A99460123BC
S2140135B09846A4E5FF084B075D463B43CC08D7E693
S2140135C062461A431400631E9C4179E61500644660
S2140135D0203DEC40A046202A05D040256446AA1A84
S2140135E0944023439A465446631E9C4143462343D4
S2140135F073E762461A4323D00A003A4300D0A0E09C
S2140136006246DB08520713436246D408B0E60B0055
S2140136103B4300D128E7FF084B075D463B43CC08F8
S21401362097E60223984636E7FC1AA742BF4163464F
S2140136307F42C91ACB1B994601235D4698465EE533
S2140136404B07FF083B43CC0892E6DC1B6046A342CF
S214013650B641401A7642801B8146000260D5FC1AAC
S214013660A742BF4163467F42C91ACB1B99465D46B6
S21401367076E5FF084B073B43CC0867E60A00DB0804
S2140136803A4300D16FE66246520713436246D408B6
S21401369080221203144207D0C808104204D15D46A6
S2140136A00400FB0849070B435A0FDB00DB085207EF
S2140136B013435DE64B07FF083B43CC0849E6DC199C
S2140136C09C429B41614489465B4299444B461B029E
S2140136D000D431E64A46174B1A40012391469846D4
S2140136E02AE616006446203EF440A046202A05D06D
S2140136F040266446B21A944023439A465446631EB3
S2140137009C4143461C43DBE502000024002348E5B8
S214013710DC19BC42BF41614489467F42B94438E75F
S2140137204B46234300D19FE606E6C046FE0700004F
S214013730FF070000FFFF7FFFFF084B073B43CC0856
S21401374016E66246DB08520713436246D408802217
S2140137501203144207D0C808104204D15D46040083
S214013760FB0849070B435A0FDB005207DB081343DC
S214013770FEE50023014A1C0013E5C046FF070000D2
S2140137800A0030B5134C530009030500090B00204D
S2140137905B0DD20FA34204DD0F48834202DD0F4BBF
S2140137A0D01830BD8020400301430D48C01A1F28A1
S2140137B008DD0C48C31AD9400B005842002AF0D144
S2140137C01800EEE7084CC540A446634499400B0038
S2140137D02B43F2E7FE0300001D040000FFFFFF7FFE
S2140137E03304000013040000EDFBFFFF70B5002852
S2140137F016D0C317C5185D40C40F2800FEF732FC6B
S214013800114A121A0A2816DC03002E0015339E40B0
S2140138100B23181AC54052052D032D0B530D03E03B
S21401382000240023002500261B052B43E407234321
S2140138303000190070BD0B38854052052D03002657
S2140138402D0B530DF0E7C0461E04000010B5041EF4
S21401385010D0FEF707FC0F4B1B1A0A2811DC0B22AF
S2140138602100121AD14015300A035B058440120B61
S2140138705B0D01E0002300221B0513432000190005
S21401388010BD22000B3882405B0512030024120B88
S2140138905B0DF1E71E04000070B543004602C40F3D
S2140138A0FE201B0E591C750A08420CD0E02292001D
S2140138B094466D07360B63441B053343E4072343E5
S2140138C02800190070BD002B14D1002D1BD0280034
S2140138D0FEF7C8FB0A281CDC0B232E001B1ADE4051
S2140138E0030015339D400E4A3603121A5205360B55
S2140138F0530DE1E7002D09D08022360B1203094B48
S2140139006D071643D8E700230026D5E70026054BAA
S214013910D2E703000B3B9D402E000025E3E7C0469F
S21401392089030000FF07000002004B00F0B55B0DA5
S2140139300C033D4E640A400F5F1CC90F0443D500BB
S21401394037420AD039481E18FE2E16DDFF20002405
S214013950C0052043C9070843F0BD002B06D12C4300
S21401396026D005229201540AD8B2F1E72543EDD0BC
S2140139708020C0030443FF20EAE7002E1BDD9201EE
S214013980531E9A41E4006D0F22432A43530748D041
S2140139900F231340042B00D004328023DB04134092
S2140139A03FD0701CFE2ED1D09201540AC0B2CFE790
S2140139B000200024CCE73200173222DB80200004EE
S2140139C020431E24A41B1F2C1DDD02225242961BDF
S2140139D00200F2401600202C04D0154A9446634497
S2140139E0984005432A00531E9A4132430026530746
S2140139F0CED180241300E404012023402242D3D1F7
S214013A00B0E70023ADE70B4A94462A00E2401400D3
S214013A102A0063449A409840551EAA410243224315
S214013A20E4E733009EE7C046FE07000080FCFFFF88
S214013A30A2FCFFFF82FCFFFF10B5002903D1FEF7B1
S214013A4011FB203002E00800FEF70CFB10BDC0465B
S214013A5080B582B000AF78607B68180002F03EF84F
S214013A60C046BD4602B080BD80B582B000AF020040
S214013A703960BB1D1A803A68BB1D1B8811001800EF
S214013A8001F0BCFA03001800BD4602B080BDC04676
S214013A9080B500AF01F09CF903001800BD4680BD5B
S214013AA080B582B000AF786039603A687B681100F3
S214013AB0180001F0D3F903001800BD4602B080BD1E
S214013AC080B584B000AFF860B9607A607A68B9688A
S214013AD0FB68180000F070FF03001800BD4604B034
S214013AE080BDC04630B5050083B0002942D0C02253
S214013AF0294B92009C580220A40134D49C58274894
S214013B0004408020C0049C509850002D30D0E02006
S214013B1007248A78C00012020240487820400243F7
S214013B20C12080001A5003200A780240C22080007B
S214013B301A508B7949790122002924D0591E8B41CC
S214013B40C0218020DB051343134A89005350535884
S214013B504004034209D164235458013B044214D162
S214013B60002BF9D1032003B030BDC2239B00D358EC
S214013B700020F8E76A460123917111705371694676
S214013B8053709370B3E70832D8E7C22189005258C0
S214013B90002BEDD10320E6E700400640FFFF7FFF44
S214013BA010B501291AD1052848D006282DD1802321
S214013BB0464A5B00D15880220B0052041340114242
S214013BC000D07FE082224149520088584005400FCC
S214013BD0002802D00138C340180010BD05285CD06B
S214013BE0062840D18023394A5B00D15880220B0039
S214013BF052041340114201D0354B1B688222072024
S214013C00324952008A581040E2E780232F4C9B002D
S214013C10E0588022030052041340104207D082234A
S214013C209B00E2580B001340114200D0294B812221
S214013C302649920088584005400FC9E7C02323480B
S214013C409B00C15880220B0052041340114203D03E
S214013C50C2239B00C358204BC1221C49920088589E
S214013C604005400FB4E7802318489B00C1588022C6
S214013C700B0052041340114208D0822301219B00FD
S214013C80C2580B001340114200D0124B812207206C
S214013C900E4992008A5810409AE7C0230B489B00B1
S214013CA0C15880220B0052041340114203D0C22394
S214013CB09B00C358084BC1220720044992008A582A
S214013CC0104085E7024B1B687CE7C0460040064073
S214013CD05841002000127A00006CDC0270B57F2487
S214013CE03F260C4B31401D5C25401D541D5CB543E1
S214013CF0294340251954195CA943551EAA4192012E
S214013D000A431A541A5C1440802214431C5400209F
S214013D1070BDC0460010024070B54646CE46344BD4
S214013D2007249C46802140B5467AB2006244A446E8
S214013D305358A343741C5350E3B22D4C9946A046E6
S214013D4064469B0043445D58A5435D50802103258E
S214013D50C9005458AC4354505A584C46AA435A507A
S214013D60012211004346B14059611100A140596139
S214013D7019612221415C447A002922D0022912D1FC
S214013D802121415C1B4E2940B1762021415C0D402A
S214013D90B5761600611CC9B28E40A2401D6B324337
S214013DA0D2B295431D6328230122C25400234361E6
S214013DB083612A33C35C002B11D160BCB146A8468F
S214013DC070BD1600611CC9B28E40A2401D6A324306
S214013DD0D2B295431D62596A91435962E3E728328C
S214013DE0835CFF2BE9D0835C0133DBB28354E4E7C9
S214013DF000A005400080004001394B42594110B5F2
S214013E000400C184FFF788FFE36A002B03D000217A
S214013E102000226B984710BD70B5554A417A536908
S214013E200400CB400120184200D072E055694B1CBB
S214013E30DBB2DD40284200D078E01569DD4028423B
S214013E404DD14B4A1369CB40DB0714D46369002B71
S214013E5010D1A369002B0DD1E28C022A00D1E38494
S214013E602000FFF759FFE36A002B03D00021200052
S214013E70226B984770BD6069002820D0E568637A98
S214013E80002D5FD02422A25C022A66D0042A68D0C4
S214013E90012A64D001267642801A60612320AD187B
S214013EA0E560205C012853D00420821AD200964097
S214013EB0A0332F4A9B009E506369002BDAD1012262
S214013EC08A401100FF222A4B0A40186A9043186262
S214013ED0596A914359626369002BBAD0CAE7232015
S214013EE0205C012818D0A0339B009D58A369002BA5
S214013EF0A7D02269002AA4D02426A05D022832D0A9
S214013F0004281AD0012813D012181B1A2261A361A3
S214013F1097E7A023DB00A2E780339B009D5824236C
S214013F20E25C203B9B1ADB00DD40DFE7114B96E7A6
S214013F3015702269A05DA369E6E715602269A05D98
S214013F40A369E1E7012080339B0040429850B3E724
S214013F50074A80339B009E50AEE72E889CE72E785A
S214013F609AE72E6898E715802269A05DA369CBE7DA
S214013F7000A005400105000030B5134B8000C15874
S214013F8080230A685B00100018401A4201D0802086
S214013F9080004B6D1B0602D580235B0018430B681F
S214013FA05B0602D58023DB00184307224024012547
S214013FB0531CDB00CB185B681C4202D02B009340DD
S214013FC01843013AF4D230BD18B1020070B5164B51
S214013FD08000C458802322689B00100018401A42B3
S214013FE000D01800636F1B0602D580235B001843C0
S214013FF023681B0602D58023DB001843E36E1B06ED
S21401400002D580231B011843002280250126511C5E
S214014010CB00E3185B681D4202D03300934018437F
S2140140200A000829F3D170BD18B10200F0B5C646E2
S214014030042400B52B4B8000C2582B4BC0584B00B4
S214014040C9008C40456EDBB2254222D0DE008619BF
S21401405034691D00A1B28C46591CC9B2C900411869
S2140140600C69A4B2644535D36046241AA4B28020F4
S21401407004335B009C52F3688343F360CB6883434D
S214014080CB60AB00D3189C6B002C18D180BCB84613
S214014090F0BD591C1D00CB00C3185B681B0617D565
S2140140A0EB00C01801692B1D5B0099528021C36883
S2140140B08B43C360AB00D3189C6B002CE6D052191F
S2140140C058321278002AE1D000209969A047DDE72E
S2140140D0CDB2E5E7806880466046241A4444A4B21F
S2140140E0C5E7C046FC40002018B1020010B5264ABC
S2140140F083009858254A9B58002202732432825C1A
S214014100002A2CD10221DA698A43DA61DA69013997
S2140141108A43DA619A691E490A409A619A691D4979
S2140141200A409A618022596912010A435A61802223
S214014130596952010A435A619A6917490A409A61B4
S21401414080225969D2000A435A614379002B0FD164
S214014150836A002B02D00021C26A984710BD022153
S2140141609A698A439A619A6901398A439A61D1E7C1
S2140141702522835CFF2B03D0835C0133DBB283549F
S21401418000234371E4E7C0464041002024B1020009
S214014190FFF7FFFFFFEFFFFFFFFBFFFF70B5134ABF
S2140141A083009E58124A0C009D58012910D033797D
S2140141B0002B08D10023338373838023AA69DB0095
S2140141C01343AB6170BD2B6E0A4A13402B66F1E7B1
S2140141D0FFF78CFFC0232A699B001A432A612A69CC
S2140141E013432B612623F454ECE7C04640410020DC
S2140141F024B10200FFFFEFFF70B50C00012900D0CB
S21401420070BD094A83009E58084A9D58FFF76EFF05
S214014210C0232A699B001A432A612A6913432B612A
S2140142202623F454ECE7C0464041002024B10200A6
S214014230CB680A68DB06013A13434A7CD20713436C
S2140142400A7C92071343CA7A120613438A7AD20566
S21401425013434A7A920513430A7A52051343CA79DD
S214014260120513438A79D20413434A7992041343FD
S2140142700A791204134303667047C04670B5464672
S214014280CE460725212240B5294B8000C458294B2C
S214014290C3589846DB6D2B40A55CED1AEDB2002D98
S2140142A017D141E004CB91462361A08B8019FDF71D
S2140142B0DDFF89B2A18343464A465A66238B9B1B80
S2140142C09BB22383238B002B2ED0013DEDB2002D14
S2140142D02AD02379002B02D0238B012B1CD0618896
S2140142E0A38B0426CB1A042B02DCA38BCB1A9EB21B
S2140142F02369002B08D0012909D00229D2D11A88B6
S214014300023391462361D0E700239946D3E71A7812
S214014310013391462361C8E74346074A1B6E1340A3
S214014320424613660023238360BCB146A84670BD8F
S2140143304041002024B10200FFFFEFFFF0B54646E2
S214014340D6464F46C0B5244B8000C458234BC358AD
S214014350DE6D98467603730F9A4631D06388994688
S21401436043464A46586FE38BD31A042B2DDCE58B64
S214014370551BADB2002D2CD0AC4600226369060059
S214014380D100CE401E7063690132013391B2636180
S2140143908D42F4D863889946E08B49466044FDF720
S2140143A065FF89B2E183638B5D1BADB26583638B69
S2140143B0002B05D05646013EF3B29A46002BCFD1CC
S2140143C0E0BCBA46B146A846F0BD042304259C4687
S2140143D0D3E700239C46DFE74041002024B10200DA
S2140143E070B5354A83009E58344A05009C58636967
S2140143F01B0502D53369002B29D16369DB0402D57D
S2140144007369002B36D163699B0702D5738B002B2A
S2140144104BD16369DB0702D5338B002B3ED1338B3F
S214014420002B00D070BD0122A3699343A3618023B2
S214014430A169DB000B43A361738B002BF2D1636987
S2140144409B0A1A42EED02800FFF750FEEAE7FFF774
S2140144504DFEC02322699B001A4322612269134341
S2140144602361802362691B011343636101222623B2
S214014470F254D7E72800FFF739FEC02322699B00D4
S2140144801A432261226913432361802362695B0117
S2140144901343636102222623F254C3E72800FFF781
S2140144A0EDFE338B002BBDD1BDE72800FFF746FF9D
S2140144B06369DB07B3D5AFE74041002024B10200B2
S2140144C01B4A830098581B4A1B499B589A690A4005
S2140144D080219A61C9029A690A42FCD19A691749F0
S2140144E00A409A619A6916490A409A619A69154979
S2140144F00A409A619A6914490A409A61DA6913492D
S2140145009A690A409A61C37C002B06D10023437442
S214014510028E022A00D1038670472B22835CFF2B72
S21401452003D0835C0133DBB283540023C374EDE70D
S214014530F043002014B20200FFFFFBFFFFFFFFF76E
S214014540FFFFFFFEFFFFFFFBFFFFFFFDFFFFDFFF9C
S21401455070B5164B8000C358154A81581A681B7DE2
S214014560002B02D113780B7770BD012B12D00120DE
S2140145708B69104E55781E4003002B409B07334332
S2140145806D085B00284014785B08C00703438B6105
S2140145900C77E9E7107852788C691340054A9B0737
S2140145A0224013438B610877DEE7C046F0430020C4
S2140145B014B20200FFFFFFBF1F4B8000C3581F4A03
S2140145C01F4980589A690A4080219A61C9029A69EE
S2140145D00A42FCD19A691B490A409A619A691A49AA
S2140145E00A409A619A6919490A409A619A69184972
S2140145F00A409A611A6917490A401A61DB69292338
S214014600C25C263B1340144A9376C37C002B07D129
S214014610038E022B01D100230386002343747047C7
S2140146202B22835CFF2B03D0835C0133DBB28354E4
S2140146300023C374ECE7C04614B20200F043002026
S214014640FFFFFBFFFFFFFFF7FFFFFFFEFFFFFFFB85
S214014650FFFFFFFDFFFFDFFF0080004070B5DE4675
S2140146604D464446564670B5837981460C009346BE
S21401467082B0012B34D8022398460423224DFF33FF
S2140146802E7B0193002323709E423AD09A4614E073
S2140146901A79424516D0996848461B689847237888
S2140146A0002805D05A466B73012A27D1019A9246F3
S2140146B00133DBB22370B3420AD2AA689B009B582F
S2140146C0002BE5D123780133DBB22370B342F4D358
S2140146D0504602B078BCB346AA46A146984670BD7D
S2140146E0022B07D10123084D98460433FF332E7B56
S2140146F00193C7E700239A460B70E9E7019B9A46A8
S214014700E6E7B246E4E7C0460441002070B5CE466F
S214014710464640B582B0002804D102B060BCB1461E
S214014720A84670BD6B46DE1D307072B61D4B5B68C9
S21401473099461B7C002B2CD11B4A1C4993690B40C4
S214014740802109030B43936193690B42FCD001233B
S21401475001249846144D6B69DB0D1C42FBD04B4679
S21401476001201E60FFF7F4FE4B461B7D002B12D185
S214014770013B9C460136E0444346002BEBD10A4AF6
S2140147800A4993690B4080219361090393690B429F
S214014790FCD162B6C1E702235B429C460236E04486
S2140147A0EAE7C046F043002000B00640FFFFF7FFEF
S2140147B07047C0467047C04670B5DE4656464D4601
S2140147C04446802370B51A4DDB052A681949134300
S2140147D02B6080232A685B0513432B60164B9A4691
S2140147E05B6B9946DE43154B1868FCF731F880235E
S2140147F05B0480469B4611E053465B6B4A46DB43AF
S214014800D4189E4200D89C1B4046FDF783FE0C49F7
S214014810FCF788FCFDF77CFDA04203D35A462B68C3
S2140148201342E9D078BCB346AA46A146984670BD65
S2140148300040024040420F0000700340C0000020CC
S2140148400024744870B5DE4656464D46444670B55B
S214014850174E184933685B005B083360164B9A465F
S2140148605B6B9946DD43154B1868FBF7F1FF802318
S2140148705B0380469B4611E053465B6B4A46DB432F
S214014880D4189D4200D85C1B4046FDF743FE0C49F8
S214014890FCF748FCFDF73CFDA04203D35A463368BB
S2140148A01342E9D178BCB346AA46A146984670BDE4
S2140148B00040024040420F0000700340C00000204C
S2140148C000247448FEE7C046C046FDE770B5C646FC
S2140148D000B5002B05D1314B314C1B78247823438E
S2140148E045D109284ED8002927D02E4B9846C3001B
S2140148F01C1AE40044446668F4698C421DD3002AFD
S21401490004D0756AAA4218D3A24216D81C1AE4002B
S2140149104444257F002D1FD1012525777469F6694A
S214014920351BA94214D80919181AC00040448161E0
S2140149300261002040BCB04670BD012200231A4926
S21401494008200C684D6812196B410A604B60F1E74C
S21401495001390919891BE7E70122002312490720BB
S2140149600C684D6812196B410A604B60E2E7012240
S21401497000230D490D200C684D6812196B410A6021
S2140149804B60D7E701220023074903200C684D68D6
S21401499012196B410A604B60CCE7C046872E002097
S2140149A0862E0020B4010020082B002010B500231D
S2140149B0FFF78CFF10BDC04610B5EFF30583002B43
S2140149C003D114DF001CC0B210BD0023FFF77EFF29
S2140149D0FAE7C04670B5002B05D1284B284C1B784A
S2140149E02478234328D1092831D8C400254B251A19
S2140149F0ED005D196D68EE698E4212D3002A0BD167
S214014A00201AC0001818037F002B2BD101238161C7
S214014A1003770261002070BD6D6AAA4201D3B242DB
S214014A20EED901220023184908200C684D68121996
S214014A306B410A604B60EEE70122002312490D200C
S214014A400C684D6812196B410A604B60E3E701225E
S214014A5000230D4903200C684D6812196B410A604A
S214014A604B60D8E701220023074907200C684D68F0
S214014A7012196B410A604B60CDE7C046872E0020B5
S214014A80862E0020B4010020082B002010B500233C
S214014A90FFF7A0FF10BDC04630B51B4B1B4A1B7865
S214014AA0127813435AB2002B0CD1092815D8C3002B
S214014AB0181A174BC0001818037F002B18D002775E
S214014AC0002030BD0122002312490D200C684D68DC
S214014AD012196B410A604B60F3E7012200230D496E
S214014AE003200C684D6812196B410A604B60E8E7B9
S214014AF001220023074905200C684D6812196B41F5
S214014B000A604B60DDE7C046872E0020862E002017
S214014B10B4010020082B002070B500210125084BA8
S214014B20084E094C0948C0461A78002A03D11D7060
S214014B30A268821A326072B630BF62B61970F2E7A6
S214014B40142B0020342B002010E000E0FFFFFF00B4
S214014B5030B500292BD00A281ED84C2343431948C8
S214014B60C0188389042B13D007D8012B0DD0022B34
S214014B7009D1002300200B7030BD082B03D1053B63
S214014B8000200B70F8E70020F6E700200B70F3E733
S214014B90022300200B70EFE7012200230A490320BD
S214014BA00C684D6812196B410A604B60E4E70122FC
S214014BB00023054918200C684D6812196B410A60DC
S214014BC04B60D9E700300020082B002070B5D64690
S214014BD04E464546020060B50A2800D97EE0514B94
S214014BE051491B7809780B4359B28C46002B00D0EB
S214014BF07FE04E4D4E4C2B6898464C234343E318BA
S214014C001E002436317889460131C9B2317098893F
S214014C10042823D0586B3023C35C8B4200D273E048
S214014C206B69002B08D000220020424B1A7070BC22
S214014C30B246A946A04670BD4346596B2023C85CC0
S214014C400028F0D12C335A432B68A218126A1B6A2B
S214014C509A42E8D90422374B1A70E8E7596B097B68
S214014C60032902D16146596119614C20504382469D
S214014C702318596898680E185046265042260E701A
S214014C809868596B844689460E8859684846614437
S214014C908C46F1008E192849F6008919274E4E6177
S214014CA080267604CE618068032688616046764257
S214014CB04E640C3608643000998908400E4207D1CC
S214014CC058645046A96C4430201899640B60A86457
S214014CD04C2301215343E3189981A1E701220023C4
S214014CE0174903200C684D6812196B410A604B6026
S214014CF09DE70122002312490D200C684D68121908
S214014D006B410A604B6092E74B46012233700023E9
S214014D100B4904200C684D6812196B410A604B6000
S214014D2085E7C046872E0020862E0020AC2F002067
S214014D3000300020202B0020442B0020C948010011
S214014D40082B002030B51D4B1D4A1B7812781343E3
S214014D501DD11C4B5A69002A24D11B68DA6A002A25
S214014D600AD172B699685A688C4662441A6008225B
S214014D700020154B1A7030BD01220023134906206E
S214014D800C684D6812196B410A604B60F3E701220B
S214014D9000230E490D200C684D6812196B410A60FC
S214014DA04B60E8E701220023084902200C684D68A1
S214014DB012196B410A604B60DDE7C046872E002062
S214014DC0862E0020AC2F0020202B0020082B002050
S214014DD010B5EFF30583002B03D108DF001CC0B22A
S214014DE010BDFFF7AFFFFBE730B5002922D0174B08
S214014DF0174A1B781278134306D100280FD10020DA
S214014E00144B5B690B6030BD0122002312490D2053
S214014E100C684D6812196B410A604B60F3E701227A
S214014E2000230D4903200C684D6812196B410A6076
S214014E304B60E8E701220023074918200C684D68FB
S214014E4012196B410A604B60DDE7C046872E0020D1
S214014E50862E00205C040020082B002010B5EFF3FE
S214014E600583002B03D129DF001CC0B210BDFFF75C
S214014E70BBFFFBE730B5244B24491B7809780200B9
S214014E800B432AD1224B5969002931D11B68596B32
S214014E90097B03290BD1D96A002913D1596900204E
S214014EA0114203D11A6102221A4B1A7030BD012237
S214014EB00023194901200C684D6812196B410A60DC
S214014EC04B60F3E701220023134906200C684D6866
S214014ED012196B410A604B60E8E7012200230E4974
S214014EE00D200C684D6812196B410A604B60DDE7B6
S214014EF001220023084902200C684D6812196B41F3
S214014F000A604B60D2E7C046872E0020862E00201E
S214014F10AC2F0020202B0020082B002070B50A287B
S214014F2041D84C2242432F4CA3185D6B2D7B032D99
S214014F302ED19E89750741D45D690D435D611D695A
S214014F400D4201D1002070BDB107FBD509210D002E
S214014F50354031423DD024494C2358434B3B24181D
S214014F60A3814B69002BEDD120220B68596B885C1D
S214014F700028E7D1226A1B6A9A42E3D91B4B1C4AD6
S214014F801B7812781343DDD101221A4B1A70DAE727
S214014F9001220023184901200C684D6812196B4143
S214014FA00A604B60CFE701220023134903200C68F7
S214014FB04D6812196B410A604B60C4E70122002359
S214014FC00D4907200C684D6812196B410A604B6049
S214014FD0B9E705495D6444328D6CA2189D642B6067
S214014FE08A64B9E700300020AC2F0020862E00200E
S214014FF0872E0020202B0020082B002010B5EFF371
S2140150000583002B03D10EDF001CC0B210BDFFF7D5
S21401501085FFFBE730B5002942D0274B274A1B788E
S214015020127813431BD10A2824D84C23434324481F
S214015030C018436B1B7B032B06D183895B0724D4E3
S214015040436900200B6030BD012200231D49012069
S2140150500C684D6812196B410A604B60F3E7012238
S214015060002318490D200C684D6812196B410A601F
S2140150704B60E8E701220023124903200C684D68C3
S21401508012196B410A604B60DDE7012200230D49CE
S21401509007200C684D6812196B410A604B60D2E715
S2140150A001220023074918200C684D6812196B412C
S2140150B00A604B60C7E7C046862E0020872E002078
S2140150C000300020082B002030B51C4B1C4A1B78F2
S2140150D0127813431BD11B4B5A69002A22D11B6835
S2140150E05A6B127B032A07D15A6982435A611A699D
S2140150F0824300201A6130BD01220023124901209B
S2140151000C684D6812196B410A604B60F3E7012287
S21401511000230D490D200C684D6812196B410A6079
S2140151204B60E8E701220023074902200C684D681E
S21401513012196B410A604B60DDE7C046872E0020DE
S214015140862E0020AC2F0020082B002010B5036807
S214015150032B15D8012B12D90023134A0360110023
S2140151600C207D31FF314B7B8343042003434B737B
S214015170AC230121FF33D1542933FF31D15010BD67
S214015180042BFCD10021084A016010000C247D305C
S214015190FF30437BA343082423434373AC23FF33ED
S2140151A0D1542933D150EAE790410020B02203219F
S2140151B01A4BFF3210B59954002127329952063204
S2140151C0013199541649B43A885C0022012805D168
S2140151D02732FF328A5C51424A41D2B2180040243B
S2140151E07D30FF309101C27EA2430A43C27621225E
S2140151F0BE200C49FF308A5C1A54FF2A0CD00A489C
S2140152005200105ACE22520098527D3AFF3A895CDB
S2140152109D32FF32995410BD0020F3E790410020E3
S214015220C83D00208C43002048AF0200CC21204B13
S2140152305A58023A022A25D800225A5078315A5032
S21401524004395A501A0000200021A0321060516023
S214015250AC220A21FF32995416492932995001216C
S2140152600832995419007D31FF318A7870308243B3
S214015270402002438A70CA21490058580E4A02400B
S2140152805A507047190070207D31FF318A78824369
S214015290502002438A708421002249005A50AC21D2
S2140152A00120FF315A542931585008315A54E8E741
S2140152B09041002001010100DBFFFFF770B5464673
S2140152C0CE46EA2340B5244A244E5B00F250B46D24
S2140152D0F56D002220002900214BFBF76FFB00280B
S2140152E02BD0204800210378002B29D132007D32B3
S2140152F0FF32D37E91469846012342469A431300D5
S2140153004A460B43D37602790023002A09D080222D
S214015310154BD20520002900FBF73CFB03005A1E63
S2140153209341CA225200B15810485B060840184300
S214015330B05060BCB146A84670BD00210948D5E70B
S214015340BD230B4A3131FF31515CD35C0B435A42CA
S2140153505341D9B2CAE7C04601010101904100207C
S2140153600000E03F8C4300203333D33FFFEFFFFDC7
S214015370C83D0020D82330B51E4AD158022925D071
S21401538011000324022020257D31FF310B7BA3432E
S2140153900343C87EA843C876C420D9B29B06400002
S2140153A09B0F012B09D03C23994328231943AC2397
S2140153B011540221FF33D15430BD3B33994314239A
S2140153C01943AC23FF331154D454F5E70021D150CF
S2140153D0110003207D31FF310B7B83430120034302
S2140153E00B73AC230120FF33D0542022CB7E134312
S2140153F0CB76E1E790410020BF2210B5214B520049
S2140154009A5C1207520F042A15D0062A1ED01900DC
S2140154100E207D31FF318A7882438A70C22149008D
S2140154205858194A02405A5092217820FF315A5C46
S21401543082435A5410BDDC220021520099547D3318
S214015440FF339A780E318A439A70F3E7AC2205212E
S214015450FF3299541A000E2078247D32FF3291785B
S214015460814379309170FF30195CA14319540A3099
S2140154701C580649214019500221937E0B4393760E
S214015480D8E7C04690410020FF01F8FFFF7FFEFFEE
S21401549000B583B06A4604231370033B538001337F
S2140154A068469380D3800EF0E9F903B000BDC0468C
S2140154B070B53B4A83009D583A4A06009C586B6972
S2140154C01B0502D52369002B2ED16B69DB0402D59F
S2140154D06369002B2ED16B699B0702D5638B002B6A
S2140154E044D16B69DB0702D5238B002B45D1238B77
S2140154F0002B11D0638B002B06D0638B002B02D1BF
S214015500238B002B1DD070BD0222AB699343AB6188
S214015510638B002BF7D1F3E70122AB699343AB61B1
S214015520638B002BE9D1EFE70EF0B0FA01222623B8
S214015530E254E8E730000EF0A9FA26230222E254EC
S214015540E1E7AB69184A1340AB61AB69174A1340F0
S214015550AB61A36A002B03D000212000E26A9847C2
S2140155606379002B10D100232373CCE73000FEF7BC
S214015570E5FE6B69DB07BAD5B6E73000FEF77EFEBF
S214015580238B002BB6D1C7E72522A35CFF2B03D0C4
S214015590A35C0133DBB2A35400236371E3E7C04687
S2140155A024B1020040410020FFF7FFFFFFEFFFFF9D
S2140155B010B5114B8200D4580EF068FA0F4B1A68DA
S2140155C02323E35C9B009B581B7B002B02D02623E6
S2140155D00121E1542223E35C9B009B581B7B002B9B
S2140155E002D026230222E254A36A002B03D0002114
S2140155F02000E26A984710BD40410020F843002091
S21401560030B52F4C83B02378112B21D8012B4AD9E2
S2140156102C4A1168002912D01122D31A103A100010
S21401562098400968014232D0274B1978274B1868F1
S2140156300092C0220023D2010DF012FF237801331D
S2140156402370234A234913680B40136003B030BD0F
S21401565000251F4A257013681F49204C0B40136014
S214015660802280239202E250174B80221978174B32
S214015670120218680123009300230DF0F1FE184B67
S2140156801D70184B1D7080239B002360D9E70E4BBD
S21401569019780E4B186800928022002392010DF0B3
S2140156A0DFFE2378CBE7084B00221978074B1868F2
S2140156B00123009300230DF0D3FE2378BFE7C046F5
S2140156C07E33002078330020C4000020C80000206C
S2140156D000900340FFFDFFFFFFFEFFFF00E100E03B
S2140156E07D330020982A0020030010B50800002B07
S2140156F003D05A6B117B01291ED0002809D0436BB9
S2140157001A7B012A08D01B88002B02D10022114BDC
S2140157101A60FAF73DFF10BD1A88002AF6D0826B90
S214015720002AF6D10B4A1268002A03D041680260AB
S214015730511A81600264E6E71288002ADDD09A6B6E
S214015740002A03D01A68034B1A60D6E71A6C014B7D
S2140157501A60D2E7182B002070B5DE4656464D4635
S214015760444670B582B0542200210190B24814F02C
S21401577060FD52230122B049CA54B04BB04ACB64F3
S21401578064231370AF4A1370FAF7E2FFAE4B18604A
S214015790FAF7DEFFAD4BA84A18600B231364AC4B37
S2140157A00021D360130044339364AA4B51641A005A
S2140157B0A1484032026242223F201A701A54A64B78
S2140157C0A64A3A385A601A6802431A60A44B5A68C5
S2140157D0D1628C2189005818002101E05A68D16AEB
S2140157E05963D36238338342F8D10B239D4C9E4DC7
S2140157F03022FF2120002B8014F01BFD0023E85EE1
S214015800002813DD0023002584469849984A062679
S214015810885F13802354100001330C301BB2916053
S214015820D5601061143114329C45F0D1D122914BD0
S214015830874C920094469B462300012242216344F2
S21401584099468A46002394468B4D32E00423A38171
S2140158506268A3684221D3182360534613702368F5
S214015860626860689A1A14F0E4FCA368616B9C464F
S21401587008886268C3001B188048624484465846FC
S214015880DB006344586180204004D86189681A644B
S2140158900322524299615A640023E3629846230028
S2140158A02C3323634C343435A14522D06A7B6B6894
S2140158B0944623622B002100103345CB45C1634635
S2140158C06563012BC2D12422A35C0133A3541B3A86
S2140158D01100A38919401A4208D1574B61649B6C89
S2140158E0554AA3641C602300443393640123A381B7
S2140158F0AEE70124504B6442DB6C61495C614E4B60
S214015900D86C14F09EFC42464B4B4B49DB6C1A613B
S214015910494B0122DB6C9C835123CA54019B8B6348
S21401592072B60024574D09E09A68196820000123D1
S214015930FFF750F8013438350A2C14D02B68002BA9
S214015940F8D03D49DA68896B0A42F3D01A79002A01
S214015950EAD020009A68196801340123FEF7B6FFE1
S21401596038350A2CEAD13A4B3948196A4C335A6B06
S214015970527B002A04D01A6A8A4201D91100180003
S2140159804C339945F3D100222B4B416B18602D4BBC
S2140159901A702B4B1A70CB6A002B0ED0098899838C
S2140159A0016A996159690162997F022905D01A62D3
S2140159B0026B5A6213602033036308238381C04657
S2140159C0FE22314B00201A700023304A1360224A0F
S2140159D09168224A521A2E490A602E4A2E491160AF
S2140159E02E4A2F4913602F4A0B8013702E4A2F49D7
S2140159F013602F4A0B8013602E4A2F491370002222
S214015A000B802E490A702E490B802E490B802E4999
S214015A100B8000212D4C206061602D4C2060616060
S214015A202C490B602C4B1A7002B078BCB346AA46C0
S214015A30A146984670BDC046AC2F0020B843002052
S214015A40872E0020862E0020382B00203C2B00209D
S214015A5000300020902E002010E000E0FFFFFF0045
S214015A60B40100204433002088430020CC000020ED
S214015A70D02E0020C948010008AD0200442B0020AA
S214015A80BCA30200E4010020202B0020242B0020D0
S214015A905C2E00202C2B0020FFFF0700342B00205B
S214015AA0702E0020142B0020282B00207C2E002096
S214015AB0302B00201C2B0020782E0020102B0020DD
S214015AC0842E0020742E0020802E0020602E0020C0
S214015AD0682E0020402B0020152B002010B5EFF378
S214015AE00583002B01D117DF10BDFFF735FEFBE75D
S214015AF0902370B5344EFF33F35C9B079B0F012B4D
S214015B0054D0022B44D0C7214900735A2F4A1A4059
S214015B10F0239B00134373525A23B371443BF37231
S214015B20902200233C21FF327370B35C8B43242107
S214015B300B43B354416800680CF0E2FD0022244B8D
S214015B4004000D00FAF726FF00280DD000220023DE
S214015B5020002900FAF73CFF002817D02000290072
S214015B60FCF7EEFBB07201E0FF23B37231003F2376
S214015B707D31FF31CA7C1A40BF3B1343D022CB7420
S214015B8000235200F370B380B35270BDB072EDE7DC
S214015B90C7214900735A0D4A1A40A0239B0013439C
S214015BA073529623B371693BF372B9E7C721490073
S214015BB0735A064A1A40A0235B00134373521423F8
S214015BC0B371053BF372ABE7904100203FFCFFFF4A
S214015BD000007040044B054A5A605A68044A1A602D
S214015BE0044A9A607047C0460020054020C528D95F
S214015BF020210000FFFF00001D4B1E4810B5834208
